{
  "_format": "hh-sol-artifact-1",
  "contractName": "Federation",
  "sourceName": "contracts/Federation.sol",
  "abi": [
    {
      "anonymous": false,
      "inputs": [
        {
          "indexed": false,
          "internalType": "bytes32",
          "name": "serviceId",
          "type": "bytes32"
        },
        {
          "indexed": false,
          "internalType": "uint256",
          "name": "biderIndex",
          "type": "uint256"
        }
      ],
      "name": "NewBid",
      "type": "event"
    },
    {
      "anonymous": false,
      "inputs": [
        {
          "indexed": false,
          "internalType": "address",
          "name": "operator",
          "type": "address"
        },
        {
          "indexed": false,
          "internalType": "string",
          "name": "name",
          "type": "string"
        }
      ],
      "name": "OperatorRegistered",
      "type": "event"
    },
    {
      "anonymous": false,
      "inputs": [
        {
          "indexed": false,
          "internalType": "address",
          "name": "operator",
          "type": "address"
        }
      ],
      "name": "OperatorRemoved",
      "type": "event"
    },
    {
      "anonymous": false,
      "inputs": [
        {
          "indexed": false,
          "internalType": "bytes32",
          "name": "serviceId",
          "type": "bytes32"
        },
        {
          "indexed": false,
          "internalType": "string",
          "name": "requirements",
          "type": "string"
        }
      ],
      "name": "ServiceAnnouncement",
      "type": "event"
    },
    {
      "anonymous": false,
      "inputs": [
        {
          "indexed": false,
          "internalType": "bytes32",
          "name": "serviceId",
          "type": "bytes32"
        }
      ],
      "name": "ServiceAnnouncementClosed",
      "type": "event"
    },
    {
      "anonymous": false,
      "inputs": [
        {
          "indexed": false,
          "internalType": "bytes32",
          "name": "serviceId",
          "type": "bytes32"
        }
      ],
      "name": "ServiceDeployed",
      "type": "event"
    },
    {
      "inputs": [
        {
          "internalType": "string",
          "name": "name",
          "type": "string"
        }
      ],
      "name": "addOperator",
      "outputs": [],
      "stateMutability": "nonpayable",
      "type": "function"
    },
    {
      "inputs": [
        {
          "internalType": "bytes32",
          "name": "serviceId",
          "type": "bytes32"
        },
        {
          "internalType": "string",
          "name": "requirements",
          "type": "string"
        },
        {
          "internalType": "string",
          "name": "endpoint_consumer",
          "type": "string"
        }
      ],
      "name": "announceService",
      "outputs": [],
      "stateMutability": "nonpayable",
      "type": "function"
    },
    {
      "inputs": [
        {
          "internalType": "bytes32",
          "name": "",
          "type": "bytes32"
        }
      ],
      "name": "bidCount",
      "outputs": [
        {
          "internalType": "uint256",
          "name": "",
          "type": "uint256"
        }
      ],
      "stateMutability": "view",
      "type": "function"
    },
    {
      "inputs": [
        {
          "internalType": "bytes32",
          "name": "",
          "type": "bytes32"
        },
        {
          "internalType": "uint256",
          "name": "",
          "type": "uint256"
        }
      ],
      "name": "bids",
      "outputs": [
        {
          "internalType": "address",
          "name": "bidAddress",
          "type": "address"
        },
        {
          "internalType": "uint256",
          "name": "priceWeiPerHour",
          "type": "uint256"
        },
        {
          "internalType": "string",
          "name": "endpoint_provider",
          "type": "string"
        }
      ],
      "stateMutability": "view",
      "type": "function"
    },
    {
      "inputs": [
        {
          "internalType": "bytes32",
          "name": "serviceId",
          "type": "bytes32"
        },
        {
          "internalType": "uint256",
          "name": "biderIndex",
          "type": "uint256"
        }
      ],
      "name": "chooseProvider",
      "outputs": [],
      "stateMutability": "nonpayable",
      "type": "function"
    },
    {
      "inputs": [
        {
          "internalType": "bytes32",
          "name": "serviceId",
          "type": "bytes32"
        },
        {
          "internalType": "address",
          "name": "callAddress",
          "type": "address"
        }
      ],
      "name": "getBidCount",
      "outputs": [
        {
          "internalType": "uint256",
          "name": "",
          "type": "uint256"
        }
      ],
      "stateMutability": "view",
      "type": "function"
    },
    {
      "inputs": [
        {
          "internalType": "bytes32",
          "name": "serviceId",
          "type": "bytes32"
        },
        {
          "internalType": "uint256",
          "name": "index",
          "type": "uint256"
        },
        {
          "internalType": "address",
          "name": "callAddress",
          "type": "address"
        }
      ],
      "name": "getBidInfo",
      "outputs": [
        {
          "internalType": "address",
          "name": "",
          "type": "address"
        },
        {
          "internalType": "uint256",
          "name": "",
          "type": "uint256"
        },
        {
          "internalType": "uint256",
          "name": "",
          "type": "uint256"
        }
      ],
      "stateMutability": "view",
      "type": "function"
    },
    {
      "inputs": [
        {
          "internalType": "address",
          "name": "callAddress",
          "type": "address"
        }
      ],
      "name": "getOperatorInfo",
      "outputs": [
        {
          "internalType": "string",
          "name": "name",
          "type": "string"
        },
        {
          "internalType": "address",
          "name": "opAddress",
          "type": "address"
        },
        {
          "internalType": "uint256",
          "name": "registrationTime",
          "type": "uint256"
        },
        {
          "internalType": "bool",
          "name": "registered",
          "type": "bool"
        }
      ],
      "stateMutability": "view",
      "type": "function"
    },
    {
      "inputs": [
        {
          "internalType": "bytes32",
          "name": "serviceId",
          "type": "bytes32"
        },
        {
          "internalType": "bool",
          "name": "isProvider",
          "type": "bool"
        },
        {
          "internalType": "address",
          "name": "callAddress",
          "type": "address"
        }
      ],
      "name": "getServiceInfo",
      "outputs": [
        {
          "internalType": "bytes32",
          "name": "",
          "type": "bytes32"
        },
        {
          "internalType": "string",
          "name": "",
          "type": "string"
        },
        {
          "internalType": "string",
          "name": "",
          "type": "string"
        }
      ],
      "stateMutability": "view",
      "type": "function"
    },
    {
      "inputs": [
        {
          "internalType": "bytes32",
          "name": "serviceId",
          "type": "bytes32"
        }
      ],
      "name": "getServiceState",
      "outputs": [
        {
          "internalType": "enum Federation.ServiceState",
          "name": "",
          "type": "uint8"
        }
      ],
      "stateMutability": "view",
      "type": "function"
    },
    {
      "inputs": [
        {
          "internalType": "bytes32",
          "name": "serviceId",
          "type": "bytes32"
        },
        {
          "internalType": "address",
          "name": "callAddress",
          "type": "address"
        }
      ],
      "name": "isWinner",
      "outputs": [
        {
          "internalType": "bool",
          "name": "",
          "type": "bool"
        }
      ],
      "stateMutability": "view",
      "type": "function"
    },
    {
      "inputs": [
        {
          "internalType": "address",
          "name": "",
          "type": "address"
        }
      ],
      "name": "operator",
      "outputs": [
        {
          "internalType": "string",
          "name": "name",
          "type": "string"
        },
        {
          "internalType": "address",
          "name": "operatorAddress",
          "type": "address"
        },
        {
          "internalType": "uint256",
          "name": "registrationTime",
          "type": "uint256"
        },
        {
          "internalType": "bool",
          "name": "registered",
          "type": "bool"
        }
      ],
      "stateMutability": "view",
      "type": "function"
    },
    {
      "inputs": [
        {
          "internalType": "bytes32",
          "name": "serviceId",
          "type": "bytes32"
        },
        {
          "internalType": "uint32",
          "name": "priceWeiPerHour",
          "type": "uint32"
        },
        {
          "internalType": "string",
          "name": "endpoint_provider",
          "type": "string"
        }
      ],
      "name": "placeBid",
      "outputs": [],
      "stateMutability": "nonpayable",
      "type": "function"
    },
    {
      "inputs": [],
      "name": "removeOperator",
      "outputs": [],
      "stateMutability": "nonpayable",
      "type": "function"
    },
    {
      "inputs": [
        {
          "internalType": "bytes32",
          "name": "",
          "type": "bytes32"
        }
      ],
      "name": "service",
      "outputs": [
        {
          "internalType": "address",
          "name": "creator",
          "type": "address"
        },
        {
          "internalType": "string",
          "name": "endpoint_consumer",
          "type": "string"
        },
        {
          "internalType": "bytes32",
          "name": "serviceId",
          "type": "bytes32"
        },
        {
          "internalType": "address",
          "name": "provider",
          "type": "address"
        },
        {
          "internalType": "string",
          "name": "endpoint_provider",
          "type": "string"
        },
        {
          "internalType": "string",
          "name": "requirements",
          "type": "string"
        },
        {
          "internalType": "enum Federation.ServiceState",
          "name": "state",
          "type": "uint8"
        }
      ],
      "stateMutability": "view",
      "type": "function"
    },
    {
      "inputs": [
        {
          "internalType": "bytes32",
          "name": "serviceId",
          "type": "bytes32"
        },
        {
          "internalType": "string",
          "name": "info",
          "type": "string"
        }
      ],
      "name": "serviceDeployed",
      "outputs": [],
      "stateMutability": "nonpayable",
      "type": "function"
    }
  ],
  "bytecode": "0x6080604052348015600f57600080fd5b506135528061001f6000396000f3fe608060405234801561001057600080fd5b50600436106101005760003560e01c80639a30739111610097578063c5f6377b11610066578063c5f6377b14610307578063c8627e4b14610323578063dec709d01461033f578063f7e65b1c1461035b57610100565b80639a307391146102425780639cc19f5b14610275578063a22aeacf146102a5578063b46e8843146102d757610100565b806347736866116100d357806347736866146101aa5780635ce56833146101c65780637886a0f4146101e25780638610372c1461021257610100565b806302b34f1f1461010557806320e545481461013b57806327d9ab5d146101455780633ca1a41c14610178575b600080fd5b61011f600480360381019061011a9190612123565b61038d565b60405161013297969594939291906122a7565b60405180910390f35b6101436105b4565b005b61015f600480360381019061015a9190612357565b610711565b60405161016f94939291906123b8565b60405180910390f35b610192600480360381019061018d9190612430565b61088e565b6040516101a193929190612483565b60405180910390f35b6101c460048036038101906101bf91906125ef565b610a96565b005b6101e060048036038101906101db919061264b565b610c8c565b005b6101fc60048036038101906101f79190612123565b610e9f565b6040516102099190612694565b60405180910390f35b61022c60048036038101906102279190612123565b610ecc565b60405161023991906126af565b60405180910390f35b61025c60048036038101906102579190612357565b610ee4565b60405161026c94939291906123b8565b60405180910390f35b61028f600480360381019061028a91906126ca565b610fc9565b60405161029c919061270a565b60405180910390f35b6102bf60048036038101906102ba9190612751565b61114f565b6040516102ce939291906127a4565b60405180910390f35b6102f160048036038101906102ec91906126ca565b611604565b6040516102fe91906126af565b60405180910390f35b610321600480360381019061031c91906127e9565b61171f565b005b61033d60048036038101906103389190612829565b611a4f565b005b610359600480360381019061035491906128f0565b611c7e565b005b610375600480360381019061037091906127e9565b611f8d565b6040516103849392919061295f565b60405180910390f35b60026020528060005260406000206000915090508060000160009054906101000a900473ffffffffffffffffffffffffffffffffffffffff16908060010180546103d6906129cc565b80601f0160208091040260200160405190810160405280929190818152602001828054610402906129cc565b801561044f5780601f106104245761010080835404028352916020019161044f565b820191906000526020600020905b81548152906001019060200180831161043257829003601f168201915b5050505050908060020154908060030160009054906101000a900473ffffffffffffffffffffffffffffffffffffffff1690806004018054610490906129cc565b80601f01602080910402602001604051908101604052809291908181526020018280546104bc906129cc565b80156105095780601f106104de57610100808354040283529160200191610509565b820191906000526020600020905b8154815290600101906020018083116104ec57829003601f168201915b50505050509080600501805461051e906129cc565b80601f016020809104026020016040519081016040528092919081815260200182805461054a906129cc565b80156105975780601f1061056c57610100808354040283529160200191610597565b820191906000526020600020905b81548152906001019060200180831161057a57829003601f168201915b5050505050908060060160009054906101000a900460ff16905087565b600360003373ffffffffffffffffffffffffffffffffffffffff1673ffffffffffffffffffffffffffffffffffffffff16815260200190815260200160002060030160009054906101000a900460ff16610643576040517f08c379a000000000000000000000000000000000000000000000000000000000815260040161063a90612a49565b60405180910390fd5b600360003373ffffffffffffffffffffffffffffffffffffffff1673ffffffffffffffffffffffffffffffffffffffff16815260200190815260200160002060008082016000610693919061207c565b6001820160006101000a81549073ffffffffffffffffffffffffffffffffffffffff021916905560028201600090556003820160006101000a81549060ff021916905550507f80c0b871b97b595b16a7741c1b06fed0c6f6f558639f18ccbce50724325dc40d336040516107079190612a69565b60405180910390a1565b6060600080600080600360008773ffffffffffffffffffffffffffffffffffffffff1673ffffffffffffffffffffffffffffffffffffffff1681526020019081526020016000209050600115158160030160009054906101000a900460ff161515146107b2576040517f08c379a00000000000000000000000000000000000000000000000000000000081526004016107a990612a49565b60405180910390fd5b806000018160010160009054906101000a900473ffffffffffffffffffffffffffffffffffffffff1682600201548360030160009054906101000a900460ff168380546107fe906129cc565b80601f016020809104026020016040519081016040528092919081815260200182805461082a906129cc565b80156108775780601f1061084c57610100808354040283529160200191610877565b820191906000526020600020905b81548152906001019060200180831161085a57829003601f168201915b505050505093509450945094509450509193509193565b600080600085806002600083815260200190815260200160002060020154146108ec576040517f08c379a00000000000000000000000000000000000000000000000000000000081526004016108e390612ad0565b60405180910390fd5b8473ffffffffffffffffffffffffffffffffffffffff166002600089815260200190815260200160002060000160009054906101000a900473ffffffffffffffffffffffffffffffffffffffff1673ffffffffffffffffffffffffffffffffffffffff1614610990576040517f08c379a000000000000000000000000000000000000000000000000000000000815260040161098790612b3c565b60405180910390fd5b600060016000898152602001908152602001600020905060008180549050116109ee576040517f08c379a00000000000000000000000000000000000000000000000000000000081526004016109e590612ba8565b60405180910390fd5b80805490508710610a34576040517f08c379a0000000000000000000000000000000000000000000000000000000008152600401610a2b90612c14565b60405180910390fd5b6000818881548110610a4957610a48612c34565b5b906000526020600020906003020190508060000160009054906101000a900473ffffffffffffffffffffffffffffffffffffffff1681600101548995509550955050505093509350939050565b8180600260008381526020019081526020016000206002015414610aef576040517f08c379a0000000000000000000000000000000000000000000000000000000008152600401610ae690612ad0565b60405180910390fd5b60006002600085815260200190815260200160002090503373ffffffffffffffffffffffffffffffffffffffff168160030160009054906101000a900473ffffffffffffffffffffffffffffffffffffffff1673ffffffffffffffffffffffffffffffffffffffff1614610b98576040517f08c379a0000000000000000000000000000000000000000000000000000000008152600401610b8f90612caf565b60405180910390fd5b60016002811115610bac57610bab612230565b5b8160060160009054906101000a900460ff166002811115610bd057610bcf612230565b5b14610c10576040517f08c379a0000000000000000000000000000000000000000000000000000000008152600401610c0790612d1b565b60405180910390fd5b60028160060160006101000a81548160ff02191690836002811115610c3857610c37612230565b5b021790555082816005019081610c4e9190612ee7565b507f551f0673976650a1f260d5387f7614f0386a1f815f15e6e4e8bbc077e8be645d84604051610c7e9190612fb9565b60405180910390a150505050565b6000815111610cd0576040517f08c379a0000000000000000000000000000000000000000000000000000000008152600401610cc790613020565b60405180910390fd5b600360003373ffffffffffffffffffffffffffffffffffffffff1673ffffffffffffffffffffffffffffffffffffffff16815260200190815260200160002060030160009054906101000a900460ff1615610d60576040517f08c379a0000000000000000000000000000000000000000000000000000000008152600401610d579061308c565b60405180910390fd5b60405180608001604052808281526020013373ffffffffffffffffffffffffffffffffffffffff16815260200142815260200160011515815250600360003373ffffffffffffffffffffffffffffffffffffffff1673ffffffffffffffffffffffffffffffffffffffff1681526020019081526020016000206000820151816000019081610dee9190612ee7565b5060208201518160010160006101000a81548173ffffffffffffffffffffffffffffffffffffffff021916908373ffffffffffffffffffffffffffffffffffffffff1602179055506040820151816002015560608201518160030160006101000a81548160ff0219169083151502179055509050507f11a85ea4a40584362c3d9c17685709a2e02b466ac78d5eb00b6aff73d90f58053382604051610e949291906130ac565b60405180910390a150565b60006002600083815260200190815260200160002060060160009054906101000a900460ff169050919050565b60006020528060005260406000206000915090505481565b6003602052806000526040600020600091509050806000018054610f07906129cc565b80601f0160208091040260200160405190810160405280929190818152602001828054610f33906129cc565b8015610f805780601f10610f5557610100808354040283529160200191610f80565b820191906000526020600020905b815481529060010190602001808311610f6357829003601f168201915b5050505050908060010160009054906101000a900473ffffffffffffffffffffffffffffffffffffffff16908060020154908060030160009054906101000a900460ff16905084565b60008280600260008381526020019081526020016000206002015414611024576040517f08c379a000000000000000000000000000000000000000000000000000000000815260040161101b90612ad0565b60405180910390fd5b60006002600086815260200190815260200160002090506001600281111561104f5761104e612230565b5b8160060160009054906101000a900460ff16600281111561107357611072612230565b5b14806110b3575060028081111561108d5761108c612230565b5b8160060160009054906101000a900460ff1660028111156110b1576110b0612230565b5b145b6110f2576040517f08c379a00000000000000000000000000000000000000000000000000000000081526004016110e99061314e565b60405180910390fd5b8373ffffffffffffffffffffffffffffffffffffffff168160030160009054906101000a900473ffffffffffffffffffffffffffffffffffffffff1673ffffffffffffffffffffffffffffffffffffffff16149250505092915050565b60006060806000600260008881526020019081526020016000209050600360008673ffffffffffffffffffffffffffffffffffffffff1673ffffffffffffffffffffffffffffffffffffffff16815260200190815260200160002060030160009054906101000a900460ff166111fa576040517f08c379a00000000000000000000000000000000000000000000000000000000081526004016111f190612a49565b60405180910390fd5b6001600281111561120e5761120d612230565b5b8160060160009054906101000a900460ff16600281111561123257611231612230565b5b1015611273576040517f08c379a000000000000000000000000000000000000000000000000000000000815260040161126a90612d1b565b60405180910390fd5b851561143c578473ffffffffffffffffffffffffffffffffffffffff168160030160009054906101000a900473ffffffffffffffffffffffffffffffffffffffff1673ffffffffffffffffffffffffffffffffffffffff161461130b576040517f08c379a000000000000000000000000000000000000000000000000000000000815260040161130290612caf565b60405180910390fd5b80600201548160010182600501818054611324906129cc565b80601f0160208091040260200160405190810160405280929190818152602001828054611350906129cc565b801561139d5780601f106113725761010080835404028352916020019161139d565b820191906000526020600020905b81548152906001019060200180831161138057829003601f168201915b505050505091508080546113b0906129cc565b80601f01602080910402602001604051908101604052809291908181526020018280546113dc906129cc565b80156114295780601f106113fe57610100808354040283529160200191611429565b820191906000526020600020905b81548152906001019060200180831161140c57829003601f168201915b50505050509050935093509350506115fb565b8473ffffffffffffffffffffffffffffffffffffffff168160000160009054906101000a900473ffffffffffffffffffffffffffffffffffffffff1673ffffffffffffffffffffffffffffffffffffffff16146114ce576040517f08c379a00000000000000000000000000000000000000000000000000000000081526004016114c5906131ba565b60405180910390fd5b806002015481600401826005018180546114e7906129cc565b80601f0160208091040260200160405190810160405280929190818152602001828054611513906129cc565b80156115605780601f1061153557610100808354040283529160200191611560565b820191906000526020600020905b81548152906001019060200180831161154357829003601f168201915b50505050509150808054611573906129cc565b80601f016020809104026020016040519081016040528092919081815260200182805461159f906129cc565b80156115ec5780601f106115c1576101008083540402835291602001916115ec565b820191906000526020600020905b8154815290600101906020018083116115cf57829003601f168201915b50505050509050935093509350505b93509350939050565b6000828060026000838152602001908152602001600020600201541461165f576040517f08c379a000000000000000000000000000000000000000000000000000000000815260040161165690612ad0565b60405180910390fd5b8273ffffffffffffffffffffffffffffffffffffffff166002600086815260200190815260200160002060000160009054906101000a900473ffffffffffffffffffffffffffffffffffffffff1673ffffffffffffffffffffffffffffffffffffffff1614611703576040517f08c379a00000000000000000000000000000000000000000000000000000000081526004016116fa90612b3c565b60405180910390fd5b6000808581526020019081526020016000205491505092915050565b8180600260008381526020019081526020016000206002015414611778576040517f08c379a000000000000000000000000000000000000000000000000000000000815260040161176f90612ad0565b60405180910390fd5b823373ffffffffffffffffffffffffffffffffffffffff166002600083815260200190815260200160002060000160009054906101000a900473ffffffffffffffffffffffffffffffffffffffff1673ffffffffffffffffffffffffffffffffffffffff161461181d576040517f08c379a000000000000000000000000000000000000000000000000000000000815260040161181490613226565b60405180910390fd5b60006002600086815260200190815260200160002090506000600281111561184857611847612230565b5b8160060160009054906101000a900460ff16600281111561186c5761186b612230565b5b146118ac576040517f08c379a00000000000000000000000000000000000000000000000000000000081526004016118a390613292565b60405180910390fd5b60016000868152602001908152602001600020805490508410611904576040517f08c379a00000000000000000000000000000000000000000000000000000000081526004016118fb90612c14565b60405180910390fd5b60018160060160006101000a81548160ff0219169083600281111561192c5761192b612230565b5b021790555060016000868152602001908152602001600020848154811061195657611955612c34565b5b906000526020600020906003020160000160009054906101000a900473ffffffffffffffffffffffffffffffffffffffff168160030160006101000a81548173ffffffffffffffffffffffffffffffffffffffff021916908373ffffffffffffffffffffffffffffffffffffffff1602179055506001600086815260200190815260200160002084815481106119ef576119ee612c34565b5b9060005260206000209060030201600201816004019081611a1091906132dd565b507f0fa967e5a697cd5b1a32e3ed8e2a5b983caf2ae1bb54e8fe37fae071347e8fea85604051611a409190612fb9565b60405180910390a15050505050565b600360003373ffffffffffffffffffffffffffffffffffffffff1673ffffffffffffffffffffffffffffffffffffffff16815260200190815260200160002060030160009054906101000a900460ff16611ade576040517f08c379a0000000000000000000000000000000000000000000000000000000008152600401611ad590612a49565b60405180910390fd5b82600260008581526020019081526020016000206002015403611b36576040517f08c379a0000000000000000000000000000000000000000000000000000000008152600401611b2d90613411565b60405180910390fd5b600060026000858152602001908152602001600020905083816002018190555082816005019081611b679190612ee7565b5060008160060160006101000a81548160ff02191690836002811115611b9057611b8f612230565b5b0217905550338160000160006101000a81548173ffffffffffffffffffffffffffffffffffffffff021916908373ffffffffffffffffffffffffffffffffffffffff160217905550338160030160006101000a81548173ffffffffffffffffffffffffffffffffffffffff021916908373ffffffffffffffffffffffffffffffffffffffff16021790555081816001019081611c2c9190612ee7565b5081816004019081611c3e9190612ee7565b507f1f9d577c7e5f1143cf185f915e072fc815fe000d836dd55a38ac2500edb7ed868484604051611c70929190613431565b60405180910390a150505050565b600360003373ffffffffffffffffffffffffffffffffffffffff1673ffffffffffffffffffffffffffffffffffffffff16815260200190815260200160002060030160009054906101000a900460ff16611d0d576040517f08c379a0000000000000000000000000000000000000000000000000000000008152600401611d0490612a49565b60405180910390fd5b8280600260008381526020019081526020016000206002015414611d66576040517f08c379a0000000000000000000000000000000000000000000000000000000008152600401611d5d90612ad0565b60405180910390fd5b600060026000868152602001908152602001600020905060006002811115611d9157611d90612230565b5b8160060160009054906101000a900460ff166002811115611db557611db4612230565b5b14611df5576040517f08c379a0000000000000000000000000000000000000000000000000000000008152600401611dec90613292565b60405180910390fd5b60008463ffffffff1611611e3e576040517f08c379a0000000000000000000000000000000000000000000000000000000008152600401611e35906134d3565b60405180910390fd5b6001600086815260200190815260200160002060405180606001604052803373ffffffffffffffffffffffffffffffffffffffff1681526020018663ffffffff16815260200185815250908060018154018082558091505060019003906000526020600020906003020160009091909190915060008201518160000160006101000a81548173ffffffffffffffffffffffffffffffffffffffff021916908373ffffffffffffffffffffffffffffffffffffffff160217905550602082015181600101556040820151816002019081611f179190612ee7565b50505060006001600087815260200190815260200160002080549050905080600080888152602001908152602001600020819055507fdb578ec7204282ed3ffcec84ef9d2ca9adda7fb0c0b707010bad5cce9f18f41f8682604051611f7d9291906134f3565b60405180910390a1505050505050565b60016020528160005260406000208181548110611fa957600080fd5b9060005260206000209060030201600091509150508060000160009054906101000a900473ffffffffffffffffffffffffffffffffffffffff1690806001015490806002018054611ff9906129cc565b80601f0160208091040260200160405190810160405280929190818152602001828054612025906129cc565b80156120725780601f1061204757610100808354040283529160200191612072565b820191906000526020600020905b81548152906001019060200180831161205557829003601f168201915b5050505050905083565b508054612088906129cc565b6000825580601f1061209a57506120b9565b601f0160209004906000526020600020908101906120b891906120bc565b5b50565b5b808211156120d55760008160009055506001016120bd565b5090565b6000604051905090565b600080fd5b600080fd5b6000819050919050565b612100816120ed565b811461210b57600080fd5b50565b60008135905061211d816120f7565b92915050565b600060208284031215612139576121386120e3565b5b60006121478482850161210e565b91505092915050565b600073ffffffffffffffffffffffffffffffffffffffff82169050919050565b600061217b82612150565b9050919050565b61218b81612170565b82525050565b600081519050919050565b600082825260208201905092915050565b60005b838110156121cb5780820151818401526020810190506121b0565b60008484015250505050565b6000601f19601f8301169050919050565b60006121f382612191565b6121fd818561219c565b935061220d8185602086016121ad565b612216816121d7565b840191505092915050565b61222a816120ed565b82525050565b7f4e487b7100000000000000000000000000000000000000000000000000000000600052602160045260246000fd5b600381106122705761226f612230565b5b50565b60008190506122818261225f565b919050565b600061229182612273565b9050919050565b6122a181612286565b82525050565b600060e0820190506122bc600083018a612182565b81810360208301526122ce81896121e8565b90506122dd6040830188612221565b6122ea6060830187612182565b81810360808301526122fc81866121e8565b905081810360a083015261231081856121e8565b905061231f60c0830184612298565b98975050505050505050565b61233481612170565b811461233f57600080fd5b50565b6000813590506123518161232b565b92915050565b60006020828403121561236d5761236c6120e3565b5b600061237b84828501612342565b91505092915050565b6000819050919050565b61239781612384565b82525050565b60008115159050919050565b6123b28161239d565b82525050565b600060808201905081810360008301526123d281876121e8565b90506123e16020830186612182565b6123ee604083018561238e565b6123fb60608301846123a9565b95945050505050565b61240d81612384565b811461241857600080fd5b50565b60008135905061242a81612404565b92915050565b600080600060608486031215612449576124486120e3565b5b60006124578682870161210e565b93505060206124688682870161241b565b925050604061247986828701612342565b9150509250925092565b60006060820190506124986000830186612182565b6124a5602083018561238e565b6124b2604083018461238e565b949350505050565b600080fd5b600080fd5b7f4e487b7100000000000000000000000000000000000000000000000000000000600052604160045260246000fd5b6124fc826121d7565b810181811067ffffffffffffffff8211171561251b5761251a6124c4565b5b80604052505050565b600061252e6120d9565b905061253a82826124f3565b919050565b600067ffffffffffffffff82111561255a576125596124c4565b5b612563826121d7565b9050602081019050919050565b82818337600083830152505050565b600061259261258d8461253f565b612524565b9050828152602081018484840111156125ae576125ad6124bf565b5b6125b9848285612570565b509392505050565b600082601f8301126125d6576125d56124ba565b5b81356125e684826020860161257f565b91505092915050565b60008060408385031215612606576126056120e3565b5b60006126148582860161210e565b925050602083013567ffffffffffffffff811115612635576126346120e8565b5b612641858286016125c1565b9150509250929050565b600060208284031215612661576126606120e3565b5b600082013567ffffffffffffffff81111561267f5761267e6120e8565b5b61268b848285016125c1565b91505092915050565b60006020820190506126a96000830184612298565b92915050565b60006020820190506126c4600083018461238e565b92915050565b600080604083850312156126e1576126e06120e3565b5b60006126ef8582860161210e565b925050602061270085828601612342565b9150509250929050565b600060208201905061271f60008301846123a9565b92915050565b61272e8161239d565b811461273957600080fd5b50565b60008135905061274b81612725565b92915050565b60008060006060848603121561276a576127696120e3565b5b60006127788682870161210e565b93505060206127898682870161273c565b925050604061279a86828701612342565b9150509250925092565b60006060820190506127b96000830186612221565b81810360208301526127cb81856121e8565b905081810360408301526127df81846121e8565b9050949350505050565b60008060408385031215612800576127ff6120e3565b5b600061280e8582860161210e565b925050602061281f8582860161241b565b9150509250929050565b600080600060608486031215612842576128416120e3565b5b60006128508682870161210e565b935050602084013567ffffffffffffffff811115612871576128706120e8565b5b61287d868287016125c1565b925050604084013567ffffffffffffffff81111561289e5761289d6120e8565b5b6128aa868287016125c1565b9150509250925092565b600063ffffffff82169050919050565b6128cd816128b4565b81146128d857600080fd5b50565b6000813590506128ea816128c4565b92915050565b600080600060608486031215612909576129086120e3565b5b60006129178682870161210e565b9350506020612928868287016128db565b925050604084013567ffffffffffffffff811115612949576129486120e8565b5b612955868287016125c1565b9150509250925092565b60006060820190506129746000830186612182565b612981602083018561238e565b818103604083015261299381846121e8565b9050949350505050565b7f4e487b7100000000000000000000000000000000000000000000000000000000600052602260045260246000fd5b600060028204905060018216806129e457607f821691505b6020821081036129f7576129f661299d565b5b50919050565b7f4f70657261746f723a206e6f7420726567697374657265640000000000000000600082015250565b6000612a3360188361219c565b9150612a3e826129fd565b602082019050919050565b60006020820190508181036000830152612a6281612a26565b9050919050565b6000602082019050612a7e6000830184612182565b92915050565b7f536572766963653a20646f6573206e6f74206578697374000000000000000000600082015250565b6000612aba60178361219c565b9150612ac582612a84565b602082019050919050565b60006020820190508181036000830152612ae981612aad565b9050919050565b7f536572766963653a2063616c6c6572206e6f742063726561746f720000000000600082015250565b6000612b26601b8361219c565b9150612b3182612af0565b602082019050919050565b60006020820190508181036000830152612b5581612b19565b9050919050565b7f4269643a206e6f20626964730000000000000000000000000000000000000000600082015250565b6000612b92600c8361219c565b9150612b9d82612b5c565b602082019050919050565b60006020820190508181036000830152612bc181612b85565b9050919050565b7f4269643a20696e646578206f7574206f662072616e6765000000000000000000600082015250565b6000612bfe60178361219c565b9150612c0982612bc8565b602082019050919050565b60006020820190508181036000830152612c2d81612bf1565b9050919050565b7f4e487b7100000000000000000000000000000000000000000000000000000000600052603260045260246000fd5b7f536572766963653a206e6f742070726f76696465720000000000000000000000600082015250565b6000612c9960158361219c565b9150612ca482612c63565b602082019050919050565b60006020820190508181036000830152612cc881612c8c565b9050919050565b7f536572766963653a206e6f7420636c6f73656400000000000000000000000000600082015250565b6000612d0560138361219c565b9150612d1082612ccf565b602082019050919050565b60006020820190508181036000830152612d3481612cf8565b9050919050565b60008190508160005260206000209050919050565b60006020601f8301049050919050565b600082821b905092915050565b600060088302612d9d7fffffffffffffffffffffffffffffffffffffffffffffffffffffffffffffffff82612d60565b612da78683612d60565b95508019841693508086168417925050509392505050565b6000819050919050565b6000612de4612ddf612dda84612384565b612dbf565b612384565b9050919050565b6000819050919050565b612dfe83612dc9565b612e12612e0a82612deb565b848454612d6d565b825550505050565b600090565b612e27612e1a565b612e32818484612df5565b505050565b5b81811015612e5657612e4b600082612e1f565b600181019050612e38565b5050565b601f821115612e9b57612e6c81612d3b565b612e7584612d50565b81016020851015612e84578190505b612e98612e9085612d50565b830182612e37565b50505b505050565b600082821c905092915050565b6000612ebe60001984600802612ea0565b1980831691505092915050565b6000612ed78383612ead565b9150826002028217905092915050565b612ef082612191565b67ffffffffffffffff811115612f0957612f086124c4565b5b612f1382546129cc565b612f1e828285612e5a565b600060209050601f831160018114612f515760008415612f3f578287015190505b612f498582612ecb565b865550612fb1565b601f198416612f5f86612d3b565b60005b82811015612f8757848901518255600182019150602085019450602081019050612f62565b86831015612fa45784890151612fa0601f891682612ead565b8355505b6001600288020188555050505b505050505050565b6000602082019050612fce6000830184612221565b92915050565b7f4e616d65206973206e6f742076616c6964000000000000000000000000000000600082015250565b600061300a60118361219c565b915061301582612fd4565b602082019050919050565b6000602082019050818103600083015261303981612ffd565b9050919050565b7f4f70657261746f723a20616c7265616479207265676973746572656400000000600082015250565b6000613076601c8361219c565b915061308182613040565b602082019050919050565b600060208201905081810360008301526130a581613069565b9050919050565b60006040820190506130c16000830185612182565b81810360208301526130d381846121e8565b90509392505050565b7f536572766963653a206d75737420626520636c6f736564206f72206465706c6f60008201527f7965640000000000000000000000000000000000000000000000000000000000602082015250565b600061313860238361219c565b9150613143826130dc565b604082019050919050565b600060208201905081810360008301526131678161312b565b9050919050565b7f536572766963653a206e6f742063726561746f72000000000000000000000000600082015250565b60006131a460148361219c565b91506131af8261316e565b602082019050919050565b600060208201905081810360008301526131d381613197565b9050919050565b7f536572766963653a2063616c6c6572206973206e6f742063726561746f720000600082015250565b6000613210601e8361219c565b915061321b826131da565b602082019050919050565b6000602082019050818103600083015261323f81613203565b9050919050565b7f536572766963653a206e6f74206f70656e000000000000000000000000000000600082015250565b600061327c60118361219c565b915061328782613246565b602082019050919050565b600060208201905081810360008301526132ab8161326f565b9050919050565b6000815490506132c1816129cc565b9050919050565b60008190508160005260206000209050919050565b8181036132eb5750506133c3565b6132f4826132b2565b67ffffffffffffffff81111561330d5761330c6124c4565b5b61331782546129cc565b613322828285612e5a565b6000601f831160018114613351576000841561333f578287015490505b6133498582612ecb565b8655506133bc565b601f19841661335f876132c8565b965061336a86612d3b565b60005b828110156133925784890154825560018201915060018501945060208101905061336d565b868310156133af57848901546133ab601f891682612ead565b8355505b6001600288020188555050505b5050505050505b565b7f536572766963653a20494420616c726561647920657869737473000000000000600082015250565b60006133fb601a8361219c565b9150613406826133c5565b602082019050919050565b6000602082019050818103600083015261342a816133ee565b9050919050565b60006040820190506134466000830185612221565b818103602083015261345881846121e8565b90509392505050565b7f4269643a207072696365206d7573742062652067726561746572207468616e2060008201527f3000000000000000000000000000000000000000000000000000000000000000602082015250565b60006134bd60218361219c565b91506134c882613461565b604082019050919050565b600060208201905081810360008301526134ec816134b0565b9050919050565b60006040820190506135086000830185612221565b613515602083018461238e565b939250505056fea26469706673582212207f3d712e53aa1e31c0dd054e919b4dd6a6b41992fb0fec2e87c10733b7d7276e64736f6c634300081c0033",
  "linkReferences": {},
  "deployedLinkReferences": {}
}