{
  "_format": "hh-sol-artifact-1",
  "contractName": "Federation",
  "sourceName": "contracts/Federation.sol",
  "abi": [
    {
      "anonymous": false,
      "inputs": [
        {
          "indexed": false,
          "internalType": "bytes32",
          "name": "serviceId",
          "type": "bytes32"
        },
        {
          "indexed": false,
          "internalType": "uint256",
          "name": "biderIndex",
          "type": "uint256"
        }
      ],
      "name": "NewBid",
      "type": "event"
    },
    {
      "anonymous": false,
      "inputs": [
        {
          "indexed": false,
          "internalType": "address",
          "name": "operator",
          "type": "address"
        },
        {
          "indexed": false,
          "internalType": "string",
          "name": "name",
          "type": "string"
        }
      ],
      "name": "OperatorRegistered",
      "type": "event"
    },
    {
      "anonymous": false,
      "inputs": [
        {
          "indexed": false,
          "internalType": "address",
          "name": "operator",
          "type": "address"
        }
      ],
      "name": "OperatorRemoved",
      "type": "event"
    },
    {
      "anonymous": false,
      "inputs": [
        {
          "indexed": false,
          "internalType": "bytes32",
          "name": "serviceId",
          "type": "bytes32"
        },
        {
          "indexed": false,
          "internalType": "string",
          "name": "requirements",
          "type": "string"
        }
      ],
      "name": "ServiceAnnouncement",
      "type": "event"
    },
    {
      "anonymous": false,
      "inputs": [
        {
          "indexed": false,
          "internalType": "bytes32",
          "name": "serviceId",
          "type": "bytes32"
        }
      ],
      "name": "ServiceAnnouncementClosed",
      "type": "event"
    },
    {
      "anonymous": false,
      "inputs": [
        {
          "indexed": false,
          "internalType": "bytes32",
          "name": "serviceId",
          "type": "bytes32"
        }
      ],
      "name": "ServiceDeployed",
      "type": "event"
    },
    {
      "inputs": [
        {
          "internalType": "string",
          "name": "name",
          "type": "string"
        }
      ],
      "name": "addOperator",
      "outputs": [],
      "stateMutability": "nonpayable",
      "type": "function"
    },
    {
      "inputs": [
        {
          "internalType": "bytes32",
          "name": "serviceId",
          "type": "bytes32"
        },
        {
          "internalType": "string",
          "name": "requirements",
          "type": "string"
        },
        {
          "internalType": "string",
          "name": "endpoint_consumer",
          "type": "string"
        }
      ],
      "name": "announceService",
      "outputs": [],
      "stateMutability": "nonpayable",
      "type": "function"
    },
    {
      "inputs": [
        {
          "internalType": "bytes32",
          "name": "",
          "type": "bytes32"
        }
      ],
      "name": "bidCount",
      "outputs": [
        {
          "internalType": "uint256",
          "name": "",
          "type": "uint256"
        }
      ],
      "stateMutability": "view",
      "type": "function"
    },
    {
      "inputs": [
        {
          "internalType": "bytes32",
          "name": "",
          "type": "bytes32"
        },
        {
          "internalType": "uint256",
          "name": "",
          "type": "uint256"
        }
      ],
      "name": "bids",
      "outputs": [
        {
          "internalType": "address",
          "name": "bidAddress",
          "type": "address"
        },
        {
          "internalType": "uint256",
          "name": "priceWeiPerHour",
          "type": "uint256"
        },
        {
          "internalType": "string",
          "name": "endpoint_provider",
          "type": "string"
        }
      ],
      "stateMutability": "view",
      "type": "function"
    },
    {
      "inputs": [
        {
          "internalType": "bytes32",
          "name": "serviceId",
          "type": "bytes32"
        },
        {
          "internalType": "uint256",
          "name": "biderIndex",
          "type": "uint256"
        }
      ],
      "name": "chooseProvider",
      "outputs": [],
      "stateMutability": "nonpayable",
      "type": "function"
    },
    {
      "inputs": [
        {
          "internalType": "bytes32",
          "name": "serviceId",
          "type": "bytes32"
        },
        {
          "internalType": "address",
          "name": "callAddress",
          "type": "address"
        }
      ],
      "name": "getBidCount",
      "outputs": [
        {
          "internalType": "uint256",
          "name": "",
          "type": "uint256"
        }
      ],
      "stateMutability": "view",
      "type": "function"
    },
    {
      "inputs": [
        {
          "internalType": "bytes32",
          "name": "serviceId",
          "type": "bytes32"
        },
        {
          "internalType": "uint256",
          "name": "index",
          "type": "uint256"
        },
        {
          "internalType": "address",
          "name": "callAddress",
          "type": "address"
        }
      ],
      "name": "getBidInfo",
      "outputs": [
        {
          "internalType": "address",
          "name": "",
          "type": "address"
        },
        {
          "internalType": "uint256",
          "name": "",
          "type": "uint256"
        },
        {
          "internalType": "uint256",
          "name": "",
          "type": "uint256"
        }
      ],
      "stateMutability": "view",
      "type": "function"
    },
    {
      "inputs": [
        {
          "internalType": "address",
          "name": "callAddress",
          "type": "address"
        }
      ],
      "name": "getOperatorInfo",
      "outputs": [
        {
          "internalType": "string",
          "name": "name",
          "type": "string"
        },
        {
          "internalType": "address",
          "name": "opAddress",
          "type": "address"
        },
        {
          "internalType": "uint256",
          "name": "registrationTime",
          "type": "uint256"
        },
        {
          "internalType": "bool",
          "name": "registered",
          "type": "bool"
        }
      ],
      "stateMutability": "view",
      "type": "function"
    },
    {
      "inputs": [
        {
          "internalType": "bytes32",
          "name": "serviceId",
          "type": "bytes32"
        },
        {
          "internalType": "bool",
          "name": "isProvider",
          "type": "bool"
        },
        {
          "internalType": "address",
          "name": "callAddress",
          "type": "address"
        }
      ],
      "name": "getServiceInfo",
      "outputs": [
        {
          "internalType": "bytes32",
          "name": "",
          "type": "bytes32"
        },
        {
          "internalType": "string",
          "name": "",
          "type": "string"
        },
        {
          "internalType": "string",
          "name": "",
          "type": "string"
        }
      ],
      "stateMutability": "view",
      "type": "function"
    },
    {
      "inputs": [
        {
          "internalType": "bytes32",
          "name": "serviceId",
          "type": "bytes32"
        }
      ],
      "name": "getServiceState",
      "outputs": [
        {
          "internalType": "enum Federation.ServiceState",
          "name": "",
          "type": "uint8"
        }
      ],
      "stateMutability": "view",
      "type": "function"
    },
    {
      "inputs": [
        {
          "internalType": "bytes32",
          "name": "serviceId",
          "type": "bytes32"
        },
        {
          "internalType": "address",
          "name": "callAddress",
          "type": "address"
        }
      ],
      "name": "isWinner",
      "outputs": [
        {
          "internalType": "bool",
          "name": "",
          "type": "bool"
        }
      ],
      "stateMutability": "view",
      "type": "function"
    },
    {
      "inputs": [
        {
          "internalType": "address",
          "name": "",
          "type": "address"
        }
      ],
      "name": "operator",
      "outputs": [
        {
          "internalType": "string",
          "name": "name",
          "type": "string"
        },
        {
          "internalType": "address",
          "name": "operatorAddress",
          "type": "address"
        },
        {
          "internalType": "uint256",
          "name": "registrationTime",
          "type": "uint256"
        },
        {
          "internalType": "bool",
          "name": "registered",
          "type": "bool"
        }
      ],
      "stateMutability": "view",
      "type": "function"
    },
    {
      "inputs": [
        {
          "internalType": "bytes32",
          "name": "serviceId",
          "type": "bytes32"
        },
        {
          "internalType": "uint32",
          "name": "priceWeiPerHour",
          "type": "uint32"
        },
        {
          "internalType": "string",
          "name": "endpoint_provider",
          "type": "string"
        }
      ],
      "name": "placeBid",
      "outputs": [],
      "stateMutability": "nonpayable",
      "type": "function"
    },
    {
      "inputs": [],
      "name": "removeOperator",
      "outputs": [],
      "stateMutability": "nonpayable",
      "type": "function"
    },
    {
      "inputs": [
        {
          "internalType": "bytes32",
          "name": "",
          "type": "bytes32"
        }
      ],
      "name": "service",
      "outputs": [
        {
          "internalType": "address",
          "name": "creator",
          "type": "address"
        },
        {
          "internalType": "string",
          "name": "endpoint_consumer",
          "type": "string"
        },
        {
          "internalType": "bytes32",
          "name": "serviceId",
          "type": "bytes32"
        },
        {
          "internalType": "address",
          "name": "provider",
          "type": "address"
        },
        {
          "internalType": "string",
          "name": "endpoint_provider",
          "type": "string"
        },
        {
          "internalType": "string",
          "name": "requirements",
          "type": "string"
        },
        {
          "internalType": "enum Federation.ServiceState",
          "name": "state",
          "type": "uint8"
        }
      ],
      "stateMutability": "view",
      "type": "function"
    },
    {
      "inputs": [
        {
          "internalType": "bytes32",
          "name": "serviceId",
          "type": "bytes32"
        },
        {
          "internalType": "string",
          "name": "info",
          "type": "string"
        }
      ],
      "name": "serviceDeployed",
      "outputs": [],
      "stateMutability": "nonpayable",
      "type": "function"
    }
  ],
  "bytecode": "0x6080604052348015600f57600080fd5b506134818061001f6000396000f3fe608060405234801561001057600080fd5b50600436106101005760003560e01c80639a30739111610097578063c5f6377b11610066578063c5f6377b14610307578063c8627e4b14610323578063dec709d01461033f578063f7e65b1c1461035b57610100565b80639a307391146102425780639cc19f5b14610275578063a22aeacf146102a5578063b46e8843146102d757610100565b806347736866116100d357806347736866146101aa5780635ce56833146101c65780637886a0f4146101e25780638610372c1461021257610100565b806302b34f1f1461010557806320e545481461013b57806327d9ab5d146101455780633ca1a41c14610178575b600080fd5b61011f600480360381019061011a91906120e4565b61038d565b6040516101329796959493929190612268565b60405180910390f35b6101436105b4565b005b61015f600480360381019061015a9190612318565b610711565b60405161016f9493929190612379565b60405180910390f35b610192600480360381019061018d91906123f1565b61088e565b6040516101a193929190612444565b60405180910390f35b6101c460048036038101906101bf91906125b0565b610a96565b005b6101e060048036038101906101db919061260c565b610c8c565b005b6101fc60048036038101906101f791906120e4565b610e9f565b6040516102099190612655565b60405180910390f35b61022c600480360381019061022791906120e4565b610ecc565b6040516102399190612670565b60405180910390f35b61025c60048036038101906102579190612318565b610ee4565b60405161026c9493929190612379565b60405180910390f35b61028f600480360381019061028a919061268b565b610fc9565b60405161029c91906126cb565b60405180910390f35b6102bf60048036038101906102ba9190612712565b611110565b6040516102ce93929190612765565b60405180910390f35b6102f160048036038101906102ec919061268b565b6115c5565b6040516102fe9190612670565b60405180910390f35b610321600480360381019061031c91906127aa565b6116e0565b005b61033d600480360381019061033891906127ea565b611a10565b005b610359600480360381019061035491906128b1565b611c3f565b005b610375600480360381019061037091906127aa565b611f4e565b60405161038493929190612920565b60405180910390f35b60026020528060005260406000206000915090508060000160009054906101000a900473ffffffffffffffffffffffffffffffffffffffff16908060010180546103d69061298d565b80601f01602080910402602001604051908101604052809291908181526020018280546104029061298d565b801561044f5780601f106104245761010080835404028352916020019161044f565b820191906000526020600020905b81548152906001019060200180831161043257829003601f168201915b5050505050908060020154908060030160009054906101000a900473ffffffffffffffffffffffffffffffffffffffff16908060040180546104909061298d565b80601f01602080910402602001604051908101604052809291908181526020018280546104bc9061298d565b80156105095780601f106104de57610100808354040283529160200191610509565b820191906000526020600020905b8154815290600101906020018083116104ec57829003601f168201915b50505050509080600501805461051e9061298d565b80601f016020809104026020016040519081016040528092919081815260200182805461054a9061298d565b80156105975780601f1061056c57610100808354040283529160200191610597565b820191906000526020600020905b81548152906001019060200180831161057a57829003601f168201915b5050505050908060060160009054906101000a900460ff16905087565b600360003373ffffffffffffffffffffffffffffffffffffffff1673ffffffffffffffffffffffffffffffffffffffff16815260200190815260200160002060030160009054906101000a900460ff16610643576040517f08c379a000000000000000000000000000000000000000000000000000000000815260040161063a90612a0a565b60405180910390fd5b600360003373ffffffffffffffffffffffffffffffffffffffff1673ffffffffffffffffffffffffffffffffffffffff16815260200190815260200160002060008082016000610693919061203d565b6001820160006101000a81549073ffffffffffffffffffffffffffffffffffffffff021916905560028201600090556003820160006101000a81549060ff021916905550507f80c0b871b97b595b16a7741c1b06fed0c6f6f558639f18ccbce50724325dc40d336040516107079190612a2a565b60405180910390a1565b6060600080600080600360008773ffffffffffffffffffffffffffffffffffffffff1673ffffffffffffffffffffffffffffffffffffffff1681526020019081526020016000209050600115158160030160009054906101000a900460ff161515146107b2576040517f08c379a00000000000000000000000000000000000000000000000000000000081526004016107a990612a0a565b60405180910390fd5b806000018160010160009054906101000a900473ffffffffffffffffffffffffffffffffffffffff1682600201548360030160009054906101000a900460ff168380546107fe9061298d565b80601f016020809104026020016040519081016040528092919081815260200182805461082a9061298d565b80156108775780601f1061084c57610100808354040283529160200191610877565b820191906000526020600020905b81548152906001019060200180831161085a57829003601f168201915b505050505093509450945094509450509193509193565b600080600085806002600083815260200190815260200160002060020154146108ec576040517f08c379a00000000000000000000000000000000000000000000000000000000081526004016108e390612a91565b60405180910390fd5b8473ffffffffffffffffffffffffffffffffffffffff166002600089815260200190815260200160002060000160009054906101000a900473ffffffffffffffffffffffffffffffffffffffff1673ffffffffffffffffffffffffffffffffffffffff1614610990576040517f08c379a000000000000000000000000000000000000000000000000000000000815260040161098790612afd565b60405180910390fd5b600060016000898152602001908152602001600020905060008180549050116109ee576040517f08c379a00000000000000000000000000000000000000000000000000000000081526004016109e590612b69565b60405180910390fd5b80805490508710610a34576040517f08c379a0000000000000000000000000000000000000000000000000000000008152600401610a2b90612bd5565b60405180910390fd5b6000818881548110610a4957610a48612bf5565b5b906000526020600020906003020190508060000160009054906101000a900473ffffffffffffffffffffffffffffffffffffffff1681600101548995509550955050505093509350939050565b8180600260008381526020019081526020016000206002015414610aef576040517f08c379a0000000000000000000000000000000000000000000000000000000008152600401610ae690612a91565b60405180910390fd5b60006002600085815260200190815260200160002090503373ffffffffffffffffffffffffffffffffffffffff168160030160009054906101000a900473ffffffffffffffffffffffffffffffffffffffff1673ffffffffffffffffffffffffffffffffffffffff1614610b98576040517f08c379a0000000000000000000000000000000000000000000000000000000008152600401610b8f90612c70565b60405180910390fd5b60016002811115610bac57610bab6121f1565b5b8160060160009054906101000a900460ff166002811115610bd057610bcf6121f1565b5b14610c10576040517f08c379a0000000000000000000000000000000000000000000000000000000008152600401610c0790612cdc565b60405180910390fd5b60028160060160006101000a81548160ff02191690836002811115610c3857610c376121f1565b5b021790555082816005019081610c4e9190612ea8565b507f551f0673976650a1f260d5387f7614f0386a1f815f15e6e4e8bbc077e8be645d84604051610c7e9190612f7a565b60405180910390a150505050565b6000815111610cd0576040517f08c379a0000000000000000000000000000000000000000000000000000000008152600401610cc790612fe1565b60405180910390fd5b600360003373ffffffffffffffffffffffffffffffffffffffff1673ffffffffffffffffffffffffffffffffffffffff16815260200190815260200160002060030160009054906101000a900460ff1615610d60576040517f08c379a0000000000000000000000000000000000000000000000000000000008152600401610d579061304d565b60405180910390fd5b60405180608001604052808281526020013373ffffffffffffffffffffffffffffffffffffffff16815260200142815260200160011515815250600360003373ffffffffffffffffffffffffffffffffffffffff1673ffffffffffffffffffffffffffffffffffffffff1681526020019081526020016000206000820151816000019081610dee9190612ea8565b5060208201518160010160006101000a81548173ffffffffffffffffffffffffffffffffffffffff021916908373ffffffffffffffffffffffffffffffffffffffff1602179055506040820151816002015560608201518160030160006101000a81548160ff0219169083151502179055509050507f11a85ea4a40584362c3d9c17685709a2e02b466ac78d5eb00b6aff73d90f58053382604051610e9492919061306d565b60405180910390a150565b60006002600083815260200190815260200160002060060160009054906101000a900460ff169050919050565b60006020528060005260406000206000915090505481565b6003602052806000526040600020600091509050806000018054610f079061298d565b80601f0160208091040260200160405190810160405280929190818152602001828054610f339061298d565b8015610f805780601f10610f5557610100808354040283529160200191610f80565b820191906000526020600020905b815481529060010190602001808311610f6357829003601f168201915b5050505050908060010160009054906101000a900473ffffffffffffffffffffffffffffffffffffffff16908060020154908060030160009054906101000a900460ff16905084565b60008280600260008381526020019081526020016000206002015414611024576040517f08c379a000000000000000000000000000000000000000000000000000000000815260040161101b90612a91565b60405180910390fd5b60006002600086815260200190815260200160002090506001600281111561104f5761104e6121f1565b5b8160060160009054906101000a900460ff166002811115611073576110726121f1565b5b146110b3576040517f08c379a00000000000000000000000000000000000000000000000000000000081526004016110aa90612cdc565b60405180910390fd5b8373ffffffffffffffffffffffffffffffffffffffff168160030160009054906101000a900473ffffffffffffffffffffffffffffffffffffffff1673ffffffffffffffffffffffffffffffffffffffff16149250505092915050565b60006060806000600260008881526020019081526020016000209050600360008673ffffffffffffffffffffffffffffffffffffffff1673ffffffffffffffffffffffffffffffffffffffff16815260200190815260200160002060030160009054906101000a900460ff166111bb576040517f08c379a00000000000000000000000000000000000000000000000000000000081526004016111b290612a0a565b60405180910390fd5b600160028111156111cf576111ce6121f1565b5b8160060160009054906101000a900460ff1660028111156111f3576111f26121f1565b5b1015611234576040517f08c379a000000000000000000000000000000000000000000000000000000000815260040161122b90612cdc565b60405180910390fd5b85156113fd578473ffffffffffffffffffffffffffffffffffffffff168160030160009054906101000a900473ffffffffffffffffffffffffffffffffffffffff1673ffffffffffffffffffffffffffffffffffffffff16146112cc576040517f08c379a00000000000000000000000000000000000000000000000000000000081526004016112c390612c70565b60405180910390fd5b806002015481600101826005018180546112e59061298d565b80601f01602080910402602001604051908101604052809291908181526020018280546113119061298d565b801561135e5780601f106113335761010080835404028352916020019161135e565b820191906000526020600020905b81548152906001019060200180831161134157829003601f168201915b505050505091508080546113719061298d565b80601f016020809104026020016040519081016040528092919081815260200182805461139d9061298d565b80156113ea5780601f106113bf576101008083540402835291602001916113ea565b820191906000526020600020905b8154815290600101906020018083116113cd57829003601f168201915b50505050509050935093509350506115bc565b8473ffffffffffffffffffffffffffffffffffffffff168160000160009054906101000a900473ffffffffffffffffffffffffffffffffffffffff1673ffffffffffffffffffffffffffffffffffffffff161461148f576040517f08c379a0000000000000000000000000000000000000000000000000000000008152600401611486906130e9565b60405180910390fd5b806002015481600401826005018180546114a89061298d565b80601f01602080910402602001604051908101604052809291908181526020018280546114d49061298d565b80156115215780601f106114f657610100808354040283529160200191611521565b820191906000526020600020905b81548152906001019060200180831161150457829003601f168201915b505050505091508080546115349061298d565b80601f01602080910402602001604051908101604052809291908181526020018280546115609061298d565b80156115ad5780601f10611582576101008083540402835291602001916115ad565b820191906000526020600020905b81548152906001019060200180831161159057829003601f168201915b50505050509050935093509350505b93509350939050565b60008280600260008381526020019081526020016000206002015414611620576040517f08c379a000000000000000000000000000000000000000000000000000000000815260040161161790612a91565b60405180910390fd5b8273ffffffffffffffffffffffffffffffffffffffff166002600086815260200190815260200160002060000160009054906101000a900473ffffffffffffffffffffffffffffffffffffffff1673ffffffffffffffffffffffffffffffffffffffff16146116c4576040517f08c379a00000000000000000000000000000000000000000000000000000000081526004016116bb90612afd565b60405180910390fd5b6000808581526020019081526020016000205491505092915050565b8180600260008381526020019081526020016000206002015414611739576040517f08c379a000000000000000000000000000000000000000000000000000000000815260040161173090612a91565b60405180910390fd5b823373ffffffffffffffffffffffffffffffffffffffff166002600083815260200190815260200160002060000160009054906101000a900473ffffffffffffffffffffffffffffffffffffffff1673ffffffffffffffffffffffffffffffffffffffff16146117de576040517f08c379a00000000000000000000000000000000000000000000000000000000081526004016117d590613155565b60405180910390fd5b600060026000868152602001908152602001600020905060006002811115611809576118086121f1565b5b8160060160009054906101000a900460ff16600281111561182d5761182c6121f1565b5b1461186d576040517f08c379a0000000000000000000000000000000000000000000000000000000008152600401611864906131c1565b60405180910390fd5b600160008681526020019081526020016000208054905084106118c5576040517f08c379a00000000000000000000000000000000000000000000000000000000081526004016118bc90612bd5565b60405180910390fd5b60018160060160006101000a81548160ff021916908360028111156118ed576118ec6121f1565b5b021790555060016000868152602001908152602001600020848154811061191757611916612bf5565b5b906000526020600020906003020160000160009054906101000a900473ffffffffffffffffffffffffffffffffffffffff168160030160006101000a81548173ffffffffffffffffffffffffffffffffffffffff021916908373ffffffffffffffffffffffffffffffffffffffff1602179055506001600086815260200190815260200160002084815481106119b0576119af612bf5565b5b90600052602060002090600302016002018160040190816119d1919061320c565b507f0fa967e5a697cd5b1a32e3ed8e2a5b983caf2ae1bb54e8fe37fae071347e8fea85604051611a019190612f7a565b60405180910390a15050505050565b600360003373ffffffffffffffffffffffffffffffffffffffff1673ffffffffffffffffffffffffffffffffffffffff16815260200190815260200160002060030160009054906101000a900460ff16611a9f576040517f08c379a0000000000000000000000000000000000000000000000000000000008152600401611a9690612a0a565b60405180910390fd5b82600260008581526020019081526020016000206002015403611af7576040517f08c379a0000000000000000000000000000000000000000000000000000000008152600401611aee90613340565b60405180910390fd5b600060026000858152602001908152602001600020905083816002018190555082816005019081611b289190612ea8565b5060008160060160006101000a81548160ff02191690836002811115611b5157611b506121f1565b5b0217905550338160000160006101000a81548173ffffffffffffffffffffffffffffffffffffffff021916908373ffffffffffffffffffffffffffffffffffffffff160217905550338160030160006101000a81548173ffffffffffffffffffffffffffffffffffffffff021916908373ffffffffffffffffffffffffffffffffffffffff16021790555081816001019081611bed9190612ea8565b5081816004019081611bff9190612ea8565b507f1f9d577c7e5f1143cf185f915e072fc815fe000d836dd55a38ac2500edb7ed868484604051611c31929190613360565b60405180910390a150505050565b600360003373ffffffffffffffffffffffffffffffffffffffff1673ffffffffffffffffffffffffffffffffffffffff16815260200190815260200160002060030160009054906101000a900460ff16611cce576040517f08c379a0000000000000000000000000000000000000000000000000000000008152600401611cc590612a0a565b60405180910390fd5b8280600260008381526020019081526020016000206002015414611d27576040517f08c379a0000000000000000000000000000000000000000000000000000000008152600401611d1e90612a91565b60405180910390fd5b600060026000868152602001908152602001600020905060006002811115611d5257611d516121f1565b5b8160060160009054906101000a900460ff166002811115611d7657611d756121f1565b5b14611db6576040517f08c379a0000000000000000000000000000000000000000000000000000000008152600401611dad906131c1565b60405180910390fd5b60008463ffffffff1611611dff576040517f08c379a0000000000000000000000000000000000000000000000000000000008152600401611df690613402565b60405180910390fd5b6001600086815260200190815260200160002060405180606001604052803373ffffffffffffffffffffffffffffffffffffffff1681526020018663ffffffff16815260200185815250908060018154018082558091505060019003906000526020600020906003020160009091909190915060008201518160000160006101000a81548173ffffffffffffffffffffffffffffffffffffffff021916908373ffffffffffffffffffffffffffffffffffffffff160217905550602082015181600101556040820151816002019081611ed89190612ea8565b50505060006001600087815260200190815260200160002080549050905080600080888152602001908152602001600020819055507fdb578ec7204282ed3ffcec84ef9d2ca9adda7fb0c0b707010bad5cce9f18f41f8682604051611f3e929190613422565b60405180910390a1505050505050565b60016020528160005260406000208181548110611f6a57600080fd5b9060005260206000209060030201600091509150508060000160009054906101000a900473ffffffffffffffffffffffffffffffffffffffff1690806001015490806002018054611fba9061298d565b80601f0160208091040260200160405190810160405280929190818152602001828054611fe69061298d565b80156120335780601f1061200857610100808354040283529160200191612033565b820191906000526020600020905b81548152906001019060200180831161201657829003601f168201915b5050505050905083565b5080546120499061298d565b6000825580601f1061205b575061207a565b601f016020900490600052602060002090810190612079919061207d565b5b50565b5b8082111561209657600081600090555060010161207e565b5090565b6000604051905090565b600080fd5b600080fd5b6000819050919050565b6120c1816120ae565b81146120cc57600080fd5b50565b6000813590506120de816120b8565b92915050565b6000602082840312156120fa576120f96120a4565b5b6000612108848285016120cf565b91505092915050565b600073ffffffffffffffffffffffffffffffffffffffff82169050919050565b600061213c82612111565b9050919050565b61214c81612131565b82525050565b600081519050919050565b600082825260208201905092915050565b60005b8381101561218c578082015181840152602081019050612171565b60008484015250505050565b6000601f19601f8301169050919050565b60006121b482612152565b6121be818561215d565b93506121ce81856020860161216e565b6121d781612198565b840191505092915050565b6121eb816120ae565b82525050565b7f4e487b7100000000000000000000000000000000000000000000000000000000600052602160045260246000fd5b60038110612231576122306121f1565b5b50565b600081905061224282612220565b919050565b600061225282612234565b9050919050565b61226281612247565b82525050565b600060e08201905061227d600083018a612143565b818103602083015261228f81896121a9565b905061229e60408301886121e2565b6122ab6060830187612143565b81810360808301526122bd81866121a9565b905081810360a08301526122d181856121a9565b90506122e060c0830184612259565b98975050505050505050565b6122f581612131565b811461230057600080fd5b50565b600081359050612312816122ec565b92915050565b60006020828403121561232e5761232d6120a4565b5b600061233c84828501612303565b91505092915050565b6000819050919050565b61235881612345565b82525050565b60008115159050919050565b6123738161235e565b82525050565b6000608082019050818103600083015261239381876121a9565b90506123a26020830186612143565b6123af604083018561234f565b6123bc606083018461236a565b95945050505050565b6123ce81612345565b81146123d957600080fd5b50565b6000813590506123eb816123c5565b92915050565b60008060006060848603121561240a576124096120a4565b5b6000612418868287016120cf565b9350506020612429868287016123dc565b925050604061243a86828701612303565b9150509250925092565b60006060820190506124596000830186612143565b612466602083018561234f565b612473604083018461234f565b949350505050565b600080fd5b600080fd5b7f4e487b7100000000000000000000000000000000000000000000000000000000600052604160045260246000fd5b6124bd82612198565b810181811067ffffffffffffffff821117156124dc576124db612485565b5b80604052505050565b60006124ef61209a565b90506124fb82826124b4565b919050565b600067ffffffffffffffff82111561251b5761251a612485565b5b61252482612198565b9050602081019050919050565b82818337600083830152505050565b600061255361254e84612500565b6124e5565b90508281526020810184848401111561256f5761256e612480565b5b61257a848285612531565b509392505050565b600082601f8301126125975761259661247b565b5b81356125a7848260208601612540565b91505092915050565b600080604083850312156125c7576125c66120a4565b5b60006125d5858286016120cf565b925050602083013567ffffffffffffffff8111156125f6576125f56120a9565b5b61260285828601612582565b9150509250929050565b600060208284031215612622576126216120a4565b5b600082013567ffffffffffffffff8111156126405761263f6120a9565b5b61264c84828501612582565b91505092915050565b600060208201905061266a6000830184612259565b92915050565b6000602082019050612685600083018461234f565b92915050565b600080604083850312156126a2576126a16120a4565b5b60006126b0858286016120cf565b92505060206126c185828601612303565b9150509250929050565b60006020820190506126e0600083018461236a565b92915050565b6126ef8161235e565b81146126fa57600080fd5b50565b60008135905061270c816126e6565b92915050565b60008060006060848603121561272b5761272a6120a4565b5b6000612739868287016120cf565b935050602061274a868287016126fd565b925050604061275b86828701612303565b9150509250925092565b600060608201905061277a60008301866121e2565b818103602083015261278c81856121a9565b905081810360408301526127a081846121a9565b9050949350505050565b600080604083850312156127c1576127c06120a4565b5b60006127cf858286016120cf565b92505060206127e0858286016123dc565b9150509250929050565b600080600060608486031215612803576128026120a4565b5b6000612811868287016120cf565b935050602084013567ffffffffffffffff811115612832576128316120a9565b5b61283e86828701612582565b925050604084013567ffffffffffffffff81111561285f5761285e6120a9565b5b61286b86828701612582565b9150509250925092565b600063ffffffff82169050919050565b61288e81612875565b811461289957600080fd5b50565b6000813590506128ab81612885565b92915050565b6000806000606084860312156128ca576128c96120a4565b5b60006128d8868287016120cf565b93505060206128e98682870161289c565b925050604084013567ffffffffffffffff81111561290a576129096120a9565b5b61291686828701612582565b9150509250925092565b60006060820190506129356000830186612143565b612942602083018561234f565b818103604083015261295481846121a9565b9050949350505050565b7f4e487b7100000000000000000000000000000000000000000000000000000000600052602260045260246000fd5b600060028204905060018216806129a557607f821691505b6020821081036129b8576129b761295e565b5b50919050565b7f4f70657261746f723a206e6f7420726567697374657265640000000000000000600082015250565b60006129f460188361215d565b91506129ff826129be565b602082019050919050565b60006020820190508181036000830152612a23816129e7565b9050919050565b6000602082019050612a3f6000830184612143565b92915050565b7f536572766963653a20646f6573206e6f74206578697374000000000000000000600082015250565b6000612a7b60178361215d565b9150612a8682612a45565b602082019050919050565b60006020820190508181036000830152612aaa81612a6e565b9050919050565b7f536572766963653a2063616c6c6572206e6f742063726561746f720000000000600082015250565b6000612ae7601b8361215d565b9150612af282612ab1565b602082019050919050565b60006020820190508181036000830152612b1681612ada565b9050919050565b7f4269643a206e6f20626964730000000000000000000000000000000000000000600082015250565b6000612b53600c8361215d565b9150612b5e82612b1d565b602082019050919050565b60006020820190508181036000830152612b8281612b46565b9050919050565b7f4269643a20696e646578206f7574206f662072616e6765000000000000000000600082015250565b6000612bbf60178361215d565b9150612bca82612b89565b602082019050919050565b60006020820190508181036000830152612bee81612bb2565b9050919050565b7f4e487b7100000000000000000000000000000000000000000000000000000000600052603260045260246000fd5b7f536572766963653a206e6f742070726f76696465720000000000000000000000600082015250565b6000612c5a60158361215d565b9150612c6582612c24565b602082019050919050565b60006020820190508181036000830152612c8981612c4d565b9050919050565b7f536572766963653a206e6f7420636c6f73656400000000000000000000000000600082015250565b6000612cc660138361215d565b9150612cd182612c90565b602082019050919050565b60006020820190508181036000830152612cf581612cb9565b9050919050565b60008190508160005260206000209050919050565b60006020601f8301049050919050565b600082821b905092915050565b600060088302612d5e7fffffffffffffffffffffffffffffffffffffffffffffffffffffffffffffffff82612d21565b612d688683612d21565b95508019841693508086168417925050509392505050565b6000819050919050565b6000612da5612da0612d9b84612345565b612d80565b612345565b9050919050565b6000819050919050565b612dbf83612d8a565b612dd3612dcb82612dac565b848454612d2e565b825550505050565b600090565b612de8612ddb565b612df3818484612db6565b505050565b5b81811015612e1757612e0c600082612de0565b600181019050612df9565b5050565b601f821115612e5c57612e2d81612cfc565b612e3684612d11565b81016020851015612e45578190505b612e59612e5185612d11565b830182612df8565b50505b505050565b600082821c905092915050565b6000612e7f60001984600802612e61565b1980831691505092915050565b6000612e988383612e6e565b9150826002028217905092915050565b612eb182612152565b67ffffffffffffffff811115612eca57612ec9612485565b5b612ed4825461298d565b612edf828285612e1b565b600060209050601f831160018114612f125760008415612f00578287015190505b612f0a8582612e8c565b865550612f72565b601f198416612f2086612cfc565b60005b82811015612f4857848901518255600182019150602085019450602081019050612f23565b86831015612f655784890151612f61601f891682612e6e565b8355505b6001600288020188555050505b505050505050565b6000602082019050612f8f60008301846121e2565b92915050565b7f4e616d65206973206e6f742076616c6964000000000000000000000000000000600082015250565b6000612fcb60118361215d565b9150612fd682612f95565b602082019050919050565b60006020820190508181036000830152612ffa81612fbe565b9050919050565b7f4f70657261746f723a20616c7265616479207265676973746572656400000000600082015250565b6000613037601c8361215d565b915061304282613001565b602082019050919050565b600060208201905081810360008301526130668161302a565b9050919050565b60006040820190506130826000830185612143565b818103602083015261309481846121a9565b90509392505050565b7f536572766963653a206e6f742063726561746f72000000000000000000000000600082015250565b60006130d360148361215d565b91506130de8261309d565b602082019050919050565b60006020820190508181036000830152613102816130c6565b9050919050565b7f536572766963653a2063616c6c6572206973206e6f742063726561746f720000600082015250565b600061313f601e8361215d565b915061314a82613109565b602082019050919050565b6000602082019050818103600083015261316e81613132565b9050919050565b7f536572766963653a206e6f74206f70656e000000000000000000000000000000600082015250565b60006131ab60118361215d565b91506131b682613175565b602082019050919050565b600060208201905081810360008301526131da8161319e565b9050919050565b6000815490506131f08161298d565b9050919050565b60008190508160005260206000209050919050565b81810361321a5750506132f2565b613223826131e1565b67ffffffffffffffff81111561323c5761323b612485565b5b613246825461298d565b613251828285612e1b565b6000601f831160018114613280576000841561326e578287015490505b6132788582612e8c565b8655506132eb565b601f19841661328e876131f7565b965061329986612cfc565b60005b828110156132c15784890154825560018201915060018501945060208101905061329c565b868310156132de57848901546132da601f891682612e6e565b8355505b6001600288020188555050505b5050505050505b565b7f536572766963653a20494420616c726561647920657869737473000000000000600082015250565b600061332a601a8361215d565b9150613335826132f4565b602082019050919050565b600060208201905081810360008301526133598161331d565b9050919050565b600060408201905061337560008301856121e2565b818103602083015261338781846121a9565b90509392505050565b7f4269643a207072696365206d7573742062652067726561746572207468616e2060008201527f3000000000000000000000000000000000000000000000000000000000000000602082015250565b60006133ec60218361215d565b91506133f782613390565b604082019050919050565b6000602082019050818103600083015261341b816133df565b9050919050565b600060408201905061343760008301856121e2565b613444602083018461234f565b939250505056fea2646970667358221220c871c3da85cad33ef182ac542a7bb2df1818bc58ae8f70f41f92de8561b3d5cd64736f6c634300081c0033",
  "linkReferences": {},
  "deployedLinkReferences": {}
}